:100000000C942A000C9447000C9447000C94470071
:100010000C9447000C9447000C941C090C94470066
:100020000C9447000C9447000C9447000C94470034
:100030000C9447000C9447000C9447000C94470024
:100040000C9447000C9447000C9447000C94470014
:100050000C94470011241FBECFE5D8E0DEBFCDBF12
:1000600011E0A0E6B0E0ECE7F8E302C005900D92E5
:10007000A03BB107D9F711E0A0EBB1E001C01D92A0
:10008000AA3BB107E1F70E94B9190C943C1C0C94EF
:100090000000EF92FF920F931F937B018C0120E0F1
:1000A00030E040E05FE40E94F50388238CF0C80153
:1000B000B70120E030E040E05FE40E94C1010E940F
:1000C00055049B01AC01205030404040504806C0D0
:1000D000C801B7010E9455049B01AC01B901CA01D6
:1000E0001F910F91FF90EF900895A0E0B0E0EBE733
:1000F000F0E00C94C11BDC012B01FA019C919230C1
:1001000008F439C1EB018881823008F433C194309E
:1001100069F4843009F02FC111969C91119789815F
:10012000981709F428C1ADE9B0E025C1843009F47D
:1001300021C18230A9F4923009F01DC19A01AD01AC
:1001400088E0EA010990AE01E90109929E0181501F
:10015000C1F7E201898111969C918923818308C1AD
:10016000923009F407C112962D903C901397EB0141
:100170008A819B811496AD90BD90CD90DC901797AD
:10018000EC80FD800E811F819101281B390BB90184
:1001900037FF04C066277727621B730B6032710537
:1001A0000CF061C0121613066CF537014801062EDB
:1001B00004C096948794779467940A94D2F721E0C8
:1001C00030E040E050E004C0220F331F441F551FB1
:1001D0006A95D2F721503040404050402E213F21B7
:1001E00040235123211531054105510521F021E01E
:1001F00030E040E050E079018A01E628F72808293C
:1002000019293CC0232BD1F1260E371E350146019A
:10021000062E04C096948794779467940A94D2F734
:1002200021E030E040E050E004C0220F331F441FC3
:10023000551F6A95D2F721503040404050402A2146
:100240003B214C215D21211531054105510521F04E
:1002500021E030E040E050E059016A01A628B728CB
:10026000C828D9280BC0821593052CF01C01AA249C
:10027000BB24650103C0EE24FF24870111969C91E5
:10028000D20111968C91981709F445C0992339F041
:10029000A80197012A193B094C095D0906C0A6016E
:1002A00095012E193F09400B510B57FD08C01182D3
:1002B0003382228224833583468357831DC081E0A5
:1002C00081833382228288279927DC01821B930B4A
:1002D000A40BB50B84839583A683B7830DC0220F2F
:1002E000331F441F551F24833583468357838281E0
:1002F000938101979383828324813581468157813D
:10030000DA01C9010197A109B1098F5F9F4FAF4F72
:10031000BF4328F30BC0918333822282EA0CFB1C7B
:100320000C1D1D1DE482F5820683178383E0808304
:10033000248135814681578157FF1AC0C901AA27F8
:1003400097FDA095BA2F81709070A070B0705695EF
:10035000479537952795822B932BA42BB52B848318
:100360009583A683B7838281938101969383828349
:10037000DF0101C0D201CD01CDB7DEB7E2E10C94BF
:10038000DD1BA0E2B0E0E7ECF1E00C94CD1B69834B
:100390007A838B839C832D833E834F835887E9E048
:1003A000EE2EF12CEC0EFD1ECE010196B7010E943F
:1003B00046068E010F5E1F4FCE010596B8010E94C2
:1003C00046068A8991E089278A8BC701B801AE0168
:1003D000475E5F4F0E9475000E947105A096E6E09F
:1003E0000C94E91BA0E2B0E0E8EFF1E00C94CD1B27
:1003F00069837A838B839C832D833E834F835887C5
:10040000F9E0EF2EF12CEC0EFD1ECE010196B701A6
:100410000E9446068E010F5E1F4FCE010596B80161
:100420000E944606C701B801AE01475E5F4F0E94B9
:1004300075000E947105A096E6E00C94E91BA0E20D
:10044000B0E0E5E2F2E00C94C11B69837A838B8310
:100450009C832D833E834F835887CE010196BE0136
:10046000675F7F4F0E944606CE010596BE016F5E14
:100470007F4F0E9446069985923088F089898230A4
:10048000C8F0943019F4823051F404C0843029F457
:10049000923081F48DE990E0C6C0923049F420E0BA
:1004A0009A858A89981321E02A87CE010996BBC0D4
:1004B000823049F420E09A858A89981321E02A8BBA
:1004C000CE014196B0C02D843E844F8458886D88FB
:1004D0007E888F88988CEE24FF248701AA24BB2471
:1004E000650140E050E060E070E0E0E0F0E0C10174
:1004F00081709070892BE9F0E60CF71C081D191D1E
:100500009A01AB012A0D3B1D4C1D5D1D80E090E062
:10051000A0E0B0E0E614F7040805190520F481E036
:1005200090E0A0E0B0E0BA01A901480F591F6A1F8E
:100530007B1FAA0CBB1CCC1CDD1C97FE08C081E0F5
:1005400090E0A0E0B0E0A82AB92ACA2ADB2A3196B6
:10055000E032F10549F0660C771C881C991C569412
:10056000479437942794C3CFFA85EA892B893C892D
:100570008B859C85280F391F2E5F3F4F17C0CA01FE
:1005800081709070892B61F016950795F794E79428
:1005900080E090E0A0E0B0E8E82AF92A0A2B1B2BC3
:1005A00076956795579547952F5F3F4F77FDE7CF36
:1005B0000CC0440F551F661F771F17FD4160EE0CDE
:1005C000FF1C001F111F21503040403090E05907A0
:1005D00090E0690790E4790760F32B8F3C8FDB0193
:1005E000CA018F779070A070B07080349105A1051A
:1005F000B10561F447FD0AC0E114F10401051105DC
:1006000029F0405C5F4F6F4F7F4F40781A8EFE1786
:1006100011F081E08A8F4D8F5E8F6F8F78A383E01A
:10062000898FCE0149960E947105A096E2E10C9453
:10063000DD1BA8E1B0E0EFE1F3E00C94C91B698396
:100640007A838B839C832D833E834F835887B9E0C5
:10065000EB2EF12CEC0EFD1ECE010196B7010E948F
:1006600046068E010F5E1F4FCE010596B8010E940F
:1006700046062985223008F47EC03989323010F4CC
:10068000B8017CC08A859A8989278A87243011F02D
:10069000223031F4231709F06EC06DE970E06EC0AE
:1006A000343039F41D861E861F86188A1C861B86E8
:1006B00004C0323021F484E08987B7015FC02B8504
:1006C0003C858B899C89281B390B3C872B87ED84C3
:1006D000FE840F851889AD88BE88CF88D88CEA142F
:1006E000FB040C051D0540F4EE0CFF1C001F111F40
:1006F000215030403C872B8720E030E040E050E044
:1007000080E090E0A0E0B0E460E070E0EA14FB0478
:100710000C051D0540F0282B392B4A2B5B2BEA18C2
:10072000FB080C091D09B695A79597958795EE0CC2
:10073000FF1C001F111F6F5F7F4F6F31710531F775
:10074000DA01C9018F779070A070B0708034910584
:10075000A105B10561F427FD0AC0E114F10401050A
:10076000110529F0205C3F4F4F4F5F4F20782D87B8
:100770003E874F87588BBE01675F7F4FCB010E943A
:1007800071056896EAE00C94E51BA8E1B0E0EBEC9B
:10079000F3E00C94CD1B69837A838B839C832D8338
:1007A0003E834F83588789E0E82EF12CEC0EFD1E26
:1007B000CE010196B7010E9446068E010F5E1F4FC3
:1007C000CE010596B8010E9446068985823040F028
:1007D0008989823028F0C701B8010E94BE0601C095
:1007E0008FEF6896E6E00C94E91BA8E1B0E0EBEF30
:1007F000F3E00C94CD1B69837A838B839C832D83D8
:100800003E834F83588789E0E82EF12CEC0EFD1EC5
:10081000CE010196B7010E9446068E010F5E1F4F62
:10082000CE010596B8010E9446068985823040F0C7
:100830008989823028F0C701B8010E94BE0601C034
:100840008FEF6896E6E00C94E91BA8E1B0E0EBE2DC
:10085000F4E00C94CD1B69837A838B839C832D8376
:100860003E834F83588789E0E82EF12CEC0EFD1E65
:10087000CE010196B7010E9446068E010F5E1F4F02
:10088000CE010596B8010E9446068985823040F067
:100890008989823028F0C701B8010E94BE0601C0D4
:1008A00081E06896E6E00C94E91BACE0B0E0EBE593
:1008B000F4E00C94D11B69837A838B839C83CE01F3
:1008C0000196BE016B5F7F4F0E9446068D8182308C
:1008D00061F1823050F1843021F48E81882351F10E
:1008E0002EC02F81388537FD20C06E812F31310514
:1008F0001CF06623F9F023C08EE190E0821B930B7D
:1009000029853A854B855C8504C056954795379572
:1009100027958A95D2F76623B1F05095409530958A
:1009200021953F4F4F4F5F4F0EC020E030E040E039
:1009300050E009C02FEF3FEF4FEF5FE704C020E02A
:1009400030E040E050E8B901CA012C96E2E00C9496
:10095000ED1BA8E0B0E0EFEAF4E00C94C91B7B01CA
:100960008C01611571058105910519F482E0898377
:1009700060C083E089838EE1C82ED12CDC82CB82DB
:10098000ED82FE820F831887C801B7010E942205FD
:10099000FC013197F7FF3BC0222733272E1B3F0B6B
:1009A00057016801022E04C0D694C794B794A79447
:1009B0000A94D2F740E050E060E070E081E090E01F
:1009C000A0E0B0E004C0880F991FAA1FBB1F2A95A2
:1009D000D2F70197A109B1098E219F21A023B1234C
:1009E0000097A105B10521F041E050E060E070E022
:1009F0004A295B296C297D294D835E836F83788723
:100A00008EE190E08E1B9F0B9C838B8312C03097EE
:100A100081F00E2E04C0EE0CFF1C001F111F0A9463
:100A2000D2F7ED82FE820F831887CE1ADF0ADC82AE
:100A3000CB821A82CE0101960E9471052896EAE0C7
:100A40000C94E51BEF92FF920F931F937B018C0197
:100A500080E0E81680E0F80681E0080780E01807EB
:100A600088F48FEFE816F1040105110531F028F044
:100A700088E090E0A0E0B0E017C080E090E0A0E067
:100A8000B0E012C080E0E81680E0F80680E00807D9
:100A900081E0180728F088E190E0A0E0B0E004C011
:100AA00080E190E0A0E0B0E020E230E040E050E003
:100AB000281B390B4A0B5B0B04C016950795F7945E
:100AC000E7948A95D2F7F701EB55FF4F8081281BF9
:100AD000310941095109C9011F910F91FF90EF9010
:100AE0000895DF92EF92FF920F931F93FC01E48031
:100AF000F58006811781D1808081823048F480E0C2
:100B000090E0A0E1B0E0E82AF92A0A2B1B2BA5C04F
:100B1000843009F49FC0823021F4EE24FF24870141
:100B200005C0E114F1040105110519F4E0E0F0E05D
:100B300096C0628173819FEF623879070CF05BC0C9
:100B400022E83FEF261B370B2A3131052CF020E03D
:100B500030E040E050E02AC0B801A701022E04C0F6
:100B600076956795579547950A94D2F781E090E07E
:100B7000A0E0B0E004C0880F991FAA1FBB1F2A95F0
:100B8000D2F70197A109B1098E219F21A023B1239A
:100B90000097A105B10521F081E090E0A0E0B0E070
:100BA0009A01AB01282B392B4A2B5B2BDA01C901A7
:100BB0008F779070A070B07080349105A105B10559
:100BC00039F427FF09C0205C3F4F4F4F5F4F04C0EF
:100BD000215C3F4F4F4F5F4FE0E0F0E02030A0E05E
:100BE0003A07A0E04A07A0E45A0710F0E1E0F0E07D
:100BF00079018A0127C06038710564F5FB01E1586D
:100C0000FF4FD801C7018F779070A070B07080340B
:100C10009105A105B10539F4E7FE0DC080E490E02F
:100C2000A0E0B0E004C08FE390E0A0E0B0E0E80E08
:100C3000F91E0A1F1B1F17FF05C016950795F7948D
:100C4000E794319687E016950795F794E7948A958F
:100C5000D1F705C0EE24FF248701EFEFF0E06E2FFF
:100C6000679566276795902F9F77D794DD24D79453
:100C70008E2F8695492F462B582F5D29B701CA0123
:100C80001F910F91FF90EF90DF900895FC01DB0121
:100C9000408151812281622F6F7770E0221F2227CD
:100CA000221F9381892F880F822B282F30E0991FD4
:100CB0009927991F11969C93119721153105A9F534
:100CC000411551056105710511F482E037C082E8D4
:100CD0009FEF13969C938E9312979A01AB0167E056
:100CE000220F331F441F551F6A95D1F783E08C9361
:100CF0000DC0220F331F441F551F12968D919C91DA
:100D00001397019713969C938E931297203080E04F
:100D1000380780E0480780E4580758F314962D936D
:100D20003D934D935C93179708952F3F310579F4C8
:100D3000411551056105710519F484E08C930895FE
:100D400064FF03C081E08C9312C01C9210C02F5727
:100D5000304013963C932E93129783E08C9387E058
:100D6000440F551F661F771F8A95D1F7706414963C
:100D70004D935D936D937C93179708951F93DC01BA
:100D8000FB019C91923008F447C08081823008F4C6
:100D900043C0943051F411961C91843099F58181AF
:100DA000682F70E0611B71093FC0843021F09230E0
:100DB00031F48230B9F18181882389F12DC01196F7
:100DC0001C9111978230F1F081811817D9F4129695
:100DD0002D913C911397828193818217930794F010
:100DE00028173907BCF014968D919D910D90BC91F8
:100DF000A02D2481358146815781281739074A075C
:100E00005B0718F4112341F00AC082179307A40767
:100E1000B50740F4112319F061E070E005C06FEFF1
:100E20007FEF02C060E070E0CB011F910895DF9377
:100E3000CF9300D000D0CDB7DEB79A838983EEE49C
:100E4000F0E08081887F8083AFE4B0E0E981FA81BF
:100E500080818F708370982F93708C918C7F892BF9
:100E60008C93AEE4B0E0E981FA8180818F70882FA5
:100E700090E0959587959595879583708370982FC9
:100E8000990F990F990F8C91877E892B8C93AFE4E2
:100E9000B0E0E981FA81808182958F708370982F0C
:100EA0009295990F990F907C8C918F73892B8C93CD
:100EB000AFE4B0E0E981FA818081829586958695DC
:100EC00083708370982F9295907F8C918F7C892B63
:100ED0008C93A9E5B0E0E9E5F0E0808180628C9335
:100EE000E981FA8180818073882329F083E065E0BD
:100EF00041E00E944F09E981FA818081807C88234A
:100F000029F083E064E041E00E944F09E981FA8121
:100F100080818F70282F30E03C832B838B819C81D4
:100F20008430910549F02B813C812C30310521F032
:100F30008B819C81009759F4EFE4F0E08081886018
:100F40008083EFE4F0E08081846080830AC0EFE476
:100F5000F0E08081877F8083EFE4F0E080818B7F09
:100F60008083AEE4B0E0E981FA818181869586953F
:100F700086958170982F9795992797958C918F7763
:100F8000892B8C93AEE4B0E0E981FA81818182956E
:100F90008F7081708170982F9295990F990F907C26
:100FA0008C918F7B892B8C93AEE4B0E0E981FA8140
:100FB00081818770982F97708C91887F892B8C9373
:100FC0000F900F900F900F90CF91DF910895DF93C6
:100FD000CF93CDB7DEB7EFE4F0E01082EEE4F0E0BF
:100FE0001082A9E5B0E0E9E5F0E08081837C8C9394
:100FF000CF91DF910895CF92DF92EF92FF920F93FE
:101000001F93DF93CF930F92CDB7DEB78983809183
:10101000A5018F700E943A080F2EFAE4CF2EDD242E
:10102000F02D8981E82EFF2400E010E08091B001CE
:101030009091B1019C0140E050E0C801B7010E94CD
:10104000801BDC01CB0124E630E040E050E0BC0135
:10105000CD010E949F1BDA01C901F60191838083B3
:101060000F90CF91DF911F910F91FF90EF90DF9044
:10107000CF900895DF93CF9300D00F92CDB7DEB716
:1010800089838981282F30E03B832A838A819B8151
:101090008730910509F461C02A813B8128303105F0
:1010A0003CF58A819B818330910509F456C02A81E1
:1010B0003B81243031058CF48A819B8181309105FC
:1010C00009F43DC02A813B81223031050CF03EC03D
:1010D0008A819B81009761F158C02A813B8125302C
:1010E000310569F18A819B81863091057CF53CC090
:1010F0002A813B812B303105B9F18A819B818C306B
:10110000910534F42A813B812930310569F135C0DC
:101110008A819B818E30910581F12A813B812F301C
:10112000310511F18A819B818C30910531F12DC0FF
:101130008FEF9FEF9093B1018093B00126C08FEFA6
:1011400090E09093B1018093B0011FC08FEF91E0C8
:101150009093B1018093B00118C08FEF93E090930A
:10116000B1018093B00111C0EAE4F0E08081918187
:101170009093B1018093B00108C0E6E4F0E0808173
:1011800091819093B1018093B0010F900F900F90D7
:10119000CF91DF910895CF92DF92EF92FF920F935C
:1011A0001F93DF93CF930F92CDB7DEB789838091E2
:1011B000A5018F700E943A080F2EF8E4CF2EDD248F
:1011C000F02D8981E82EFF2400E010E08091B0012D
:1011D0009091B1019C0140E050E0C801B7010E942C
:1011E000801BDC01CB0124E630E040E050E0BC0194
:1011F000CD010E949F1BDA01C901F6019183808312
:101200000F90CF91DF911F910F91FF90EF90DF90A2
:10121000CF900895DF93CF9300D0CDB7DEB79A83F8
:10122000898389819A819093B3018093B2010F9051
:101230000F90CF91DF9108951F920F920FB60F92EA
:1012400011242F933F934F935F936F937F938F93CB
:101250009F93AF93BF93EF93FF93DF93CF93CDB75C
:10126000DEB78091B2019091B301009729F0E0912F
:10127000B201F091B3010995CF91DF91FF91EF9108
:10128000BF91AF919F918F917F916F915F914F919E
:101290003F912F910F900FBE0F901F901895DF93E5
:1012A000CF9300D000D00F92CDB7DEB789836A8389
:1012B0004B838A81883008F0D5C08981843008F05A
:1012C000D1C08981282F30E03D832C838C819D8182
:1012D0008130910509F443C02C813D8122303105D4
:1012E0002CF48C819D81009771F0BCC02C813D81D4
:1012F0002230310509F45FC08C819D8183309105D6
:1013000009F485C0AFC08B818130A1F4AAE3B0E0BD
:10131000EAE3F0E08081482F8A81282F30E081E0E5
:1013200090E0022E02C0880F991F0A94E2F7842BE6
:101330008C9398C0AAE3B0E0EAE3F0E08081482F04
:101340008A81282F30E081E090E0022E02C0880FD1
:10135000991F0A94E2F7809584238C9383C08B8134
:101360008130A1F4A7E3B0E0E7E3F0E08081482F0B
:101370008A81282F30E081E090E0022E02C0880FA1
:10138000991F0A94E2F7842B8C936CC0A7E3B0E01A
:10139000E7E3F0E08081482F8A81282F30E081E068
:1013A00090E0022E02C0880F991F0A94E2F7809500
:1013B00084238C9357C08B818130A1F4A4E3B0E0E7
:1013C000E4E3F0E08081482F8A81282F30E081E03B
:1013D00090E0022E02C0880F991F0A94E2F7842B36
:1013E0008C9340C0A4E3B0E0E4E3F0E08081482FB8
:1013F0008A81282F30E081E090E0022E02C0880F21
:10140000991F0A94E2F7809584238C932BC08B81DB
:101410008130A1F4A1E3B0E0E1E3F0E08081482F66
:101420008A81282F30E081E090E0022E02C0880FF0
:10143000991F0A94E2F7842B8C9314C0A1E3B0E0C7
:10144000E1E3F0E08081482F8A81282F30E081E0BD
:1014500090E0022E02C0880F991F0A94E2F780954F
:1014600084238C930F900F900F900F900F90CF913B
:10147000DF910895DF93CF9300D000D00F92CDB7C6
:10148000DEB789836A834B838A81883008F0D5C0B0
:101490008981843008F0D1C08981282F30E03D83D4
:1014A0002C838C819D818130910509F443C02C816E
:1014B0003D81223031052CF48C819D81009771F0A3
:1014C000BCC02C813D812230310509F45FC08C8184
:1014D0009D818330910509F485C0AFC08B81813037
:1014E000A1F4ABE3B0E0EBE3F0E08081482F8A8128
:1014F000282F30E081E090E0022E02C0880F991F73
:101500000A94E2F7842B8C9398C0ABE3B0E0EBE352
:10151000F0E08081482F8A81282F30E081E090E040
:10152000022E02C0880F991F0A94E2F78095842347
:101530008C9383C08B818130A1F4A8E3B0E0E8E311
:10154000F0E08081482F8A81282F30E081E090E010
:10155000022E02C0880F991F0A94E2F7842B8C9305
:101560006CC0A8E3B0E0E8E3F0E08081482F8A8116
:10157000282F30E081E090E0022E02C0880F991FF2
:101580000A94E2F7809584238C9357C08B81813035
:10159000A1F4A5E3B0E0E5E3F0E08081482F8A8183
:1015A000282F30E081E090E0022E02C0880F991FC2
:1015B0000A94E2F7842B8C9340C0A5E3B0E0E5E306
:1015C000F0E08081482F8A81282F30E081E090E090
:1015D000022E02C0880F991F0A94E2F78095842397
:1015E0008C932BC08B818130A1F4A2E3B0E0E2E3C5
:1015F000F0E08081482F8A81282F30E081E090E060
:10160000022E02C0880F991F0A94E2F7842B8C9354
:1016100014C0A2E3B0E0E2E3F0E08081482F8A81C9
:10162000282F30E081E090E0022E02C0880F991F41
:101630000A94E2F7809584238C930F900F900F907B
:101640000F900F90CF91DF910895DF93CF9300D04B
:1016500000D0CDB7DEB789836A838A81883008F0ED
:1016600072C08981843008F06EC08981282F30E0F3
:101670003C832B838B819C818130910549F12B81A7
:101680003C81223031052CF48B819C81009761F0E4
:101690005AC02B813C812230310571F18B819C81B4
:1016A00083309105E9F14FC0ABE3B0E0EBE3F0E04C
:1016B0008081482F8A81282F30E081E090E0022E3F
:1016C00002C0880F991F0A94E2F784278C933BC0CD
:1016D000A8E3B0E0E8E3F0E08081482F8A81282F7A
:1016E00030E081E090E0022E02C0880F991F0A943A
:1016F000E2F784278C9327C0A5E3B0E0E5E3F0E0B0
:101700008081482F8A81282F30E081E090E0022EEE
:1017100002C0880F991F0A94E2F784278C9313C0A4
:10172000A2E3B0E0E2E3F0E08081482F8A81282F35
:1017300030E081E090E0022E02C0880F991F0A94E9
:10174000E2F784278C930F900F900F900F90CF911A
:10175000DF910895DF93CF9300D000D00F92CDB7E3
:10176000DEB78A836B8319828B81883008F07DC055
:101770008A81843008F079C08A81282F30E03D8347
:101780002C834C815D814130510571F18C819D81AB
:101790008230910534F42C813D812115310569F0A9
:1017A00064C04C815D8142305105A1F18C819D81E5
:1017B0008330910509F444C058C0E9E3F0E080812A
:1017C000282F30E08B81882F90E0A90102C0559529
:1017D00047958A95E2F7CA0181709070882309F4D1
:1017E00044C081E0898341C0E6E3F0E08081282F96
:1017F00030E08B81882F90E0A90102C05595479574
:101800008A95E2F7CA0181709070882371F181E0B6
:1018100089832BC0E3E3F0E08081282F30E08B81C7
:10182000882F90E0A90102C0559547958A95E2F767
:10183000CA01817090708823C1F081E0898315C04E
:10184000E0E3F0E08081282F30E08B81882F90E06A
:10185000A90102C0559547958A95E2F7CA018170A2
:101860009070882311F081E0898389810F900F9017
:101870000F900F900F90CF91DF910895DF93CF934A
:1018800000D000D0CDB7DEB789836A8389818430E8
:1018900090F58981282F30E03C832B838B819C81BC
:1018A00081309105D1F02B813C81223031052CF41F
:1018B0008B819C81009761F01EC02B813C8122307E
:1018C000310581F08B819C818330910581F013C0BB
:1018D000EAE3F0E08A8180830EC0E7E3F0E08A81EA
:1018E000808309C0E4E3F0E08A81808304C0E1E3FF
:1018F000F0E08A8180830F900F900F900F90CF912E
:10190000DF910895DF93CF9300D000D0CDB7DEB73D
:1019100089836A838981843090F58981282F30E01A
:101920003C832B838B819C8181309105D1F02B816D
:101930003C81223031052CF48B819C81009761F031
:101940001EC02B813C812230310581F08B819C812E
:101950008330910581F013C0EBE3F0E08A8180834E
:101960000EC0E8E3F0E08A81808309C0E5E3F0E09F
:101970008A81808304C0E2E3F0E08A8180830F9053
:101980000F900F900F90CF91DF910895DF93CF9339
:1019900000D000D0CDB7DEB78A8319828A81843027
:1019A00090F58A81282F30E03C832B838B819C81AA
:1019B00081309105D1F02B813C81223031052CF40E
:1019C0008B819C81009761F01EC02B813C8122306D
:1019D000310581F08B819C818330910581F013C0AA
:1019E000E9E3F0E0808189830EC0E6E3F0E08081E6
:1019F000898309C0E3E3F0E08081898304C0E0E3E8
:101A0000F0E08081898389810F900F900F900F9073
:101A1000CF91DF910895DF93CF93CDB7DEB783E009
:101A200067E041E00E944F0983E066E040E00E94E9
:101A30004F0985EA91E00E941707EEE4F0E080810B
:101A40008064808389E29DE00E940A09CF91DF9142
:101A50000895DF93CF93CDB7DEB78091B901882386
:101A600089F4E6E4F0E0808191819093B80180935D
:101A7000B701EEE4F0E080818F7B808381E080938A
:101A8000B9011AC0E6E4F0E0208131818091B7010C
:101A90009091B801A901481B590BCA019093B80154
:101AA0008093B701EEE4F0E08081887F808310921C
:101AB000B90181E08093B601CF91DF910895DF9362
:101AC000CF93CDB7DEB769970FB6F894DEBF0FBEE0
:101AD000CDBF8091B601882309F0DFC0EEE4F0E0CD
:101AE0008091A6018770982F97708081887F892BBD
:101AF0008083ECE4F0E011821082EEE4F0E080817B
:101B00008064808383E067E041E00E943A0A80E0DD
:101B100090E0A0E2B1E48D8B9E8BAF8BB88F6D8986
:101B20007E898F89988D2BEA3AEA4AEA50E40E942E
:101B30001F02DC01CB01898B9A8BAB8BBC8B698933
:101B40007A898B899C8920E030E040E85FE30E943D
:101B5000250488231CF481E0888B91C069897A89E7
:101B60008B899C8920E030E04FE753E40E94C50355
:101B700018160CF07BC06D897E898F89988D20E0C6
:101B800030E04AE754E40E941903DC01CB018C8762
:101B90009D87AE87BF876C857D858E859F8520E07C
:101BA00030E04AE755E40E941F02DC01CB01888740
:101BB0009987AA87BB87688579858A859B8520E078
:101BC00030E040E85FE30E94250488232CF481E0A4
:101BD00090E09F838E833FC0688579858A859B8549
:101BE00020E03FEF4FE757E40E94C50318164CF57D
:101BF0006C857D858E859F8520E030E040E251E454
:101C00000E941F02DC01CB01BC01CD010E944900F2
:101C1000DC01CB019F838E830FC080E991E09D831F
:101C20008C838C819D810197F1F79D838C838E81BC
:101C30009F8101979F838E838E819F81009769F793
:101C400024C0688579858A859B850E944900DC01CE
:101C5000CB019F838E838E819F819B838A838A8120
:101C60009B810197F1F79B838A830FC069897A89E9
:101C70008B899C890E944900DC01CB01888B888973
:101C8000898389818A95F1F7898383E067E040E061
:101C90000E943A0A81E0898F01C0198E898D699668
:101CA0000FB6F894DEBF0FBECDBFCF91DF91089580
:101CB000DF93CF93CDB7DEB78091B7019091B80194
:101CC000815A9F4FCC01A0E0B0E0BC01CD010E9441
:101CD000A904DC01CB012091AB013091AC01409112
:101CE000AD015091AE01BC01CD010E941F02DC018B
:101CF000CB01BC01CD0126E933E44BE85CE30E9453
:101D00001F02DC01CB01BC01CD010E944900DC01B6
:101D1000CB019093B5018093B4011092B6018091EC
:101D2000B4019091B501CF91DF910895DF93CF93E6
:101D300000D0CDB7DEB79A838983E981FA818081AB
:101D40008370282FE981FA81808186958695877036
:101D5000982F822F692F41E00E944F090F900F901A
:101D6000CF91DF910895DF93CF9300D0CDB7DEB749
:101D70009A838983E981FA8180818370382FE98190
:101D8000FA818081869586958770282FE981FA816E
:101D90008081829586958770817091E08927817016
:101DA000982F832F622F492F0E943A0A0F900F908D
:101DB000CF91DF910895DF93CF9300D0CDB7DEB7F9
:101DC0009A838983E981FA8180818370382FE98140
:101DD000FA818081869586958770282FE981FA811E
:101DE00080818295869587708170982F832F622FCE
:101DF000492F0E943A0A0F900F90CF91DF910895DA
:101E0000DF93CF9300D0CDB7DEB79A838983E98182
:101E1000FA8180818370282FE981FA8180818695FB
:101E200086958770982F822F692F0E94250B0F901F
:101E30000F90CF91DF910895DF93CF93CDB7DEB7A9
:101E40002E970FB6F894DEBF0FBECDBF80E061E0E5
:101E500041E00E944F0980E062E041E00E944F09AA
:101E600080E090E0A0EAB1E48B879C87AD87BE87D5
:101E70006B857C858D859E8520E030E04AE755E4C2
:101E80000E941F02DC01CB018F839887A987BA8744
:101E90006F81788589859A8520E030E040E85FE3AE
:101EA0000E94250488232CF481E090E09E838D839A
:101EB0003FC06F81788589859A8520E03FEF4FE7A5
:101EC00057E40E94C50318164CF56B857C858D85FB
:101ED0009E8520E030E040E251E40E941F02DC01D8
:101EE000CB01BC01CD010E944900DC01CB019E83E6
:101EF0008D830FC080E991E09C838B838B819C81D3
:101F00000197F1F79C838B838D819E8101979E833E
:101F10008D838D819E81009769F714C06F817885CC
:101F200089859A850E944900DC01CB019E838D83BF
:101F30008D819E819A83898389819A810197F1F7A6
:101F40009A83898380E063E041E00E944F0980E04A
:101F500064E041E00E944F0980E065E041E00E94BA
:101F60004F0980E066E041E00E944F0983E30E9450
:101F7000CE0F82E30E94CE0F88E20E94CE0F8CE04B
:101F80000E94CE0F81E00E94CE0F2E960FB6F894DD
:101F9000DEBF0FBECDBFCF91DF9108950F931F938A
:101FA000DF93CF93CDB7DEB7C356D0400FB6F894CA
:101FB000DEBF0FBECDBFFE01ED59FF4F808380E035
:101FC00061E040E00E943A0AFE01E15AFF4F80E0E2
:101FD00090E0A0E8BFE380839183A283B3838E0166
:101FE000055A1F4FFE01E15AFF4F608171818281C6
:101FF000938120E030E04AE755E40E941F02DC01B3
:10200000CB01F80180839183A283B383FE01E55A5B
:10201000FF4F608171818281938120E030E040E850
:102020005FE30E942504882344F4FE01E75AFF4F32
:1020300081E090E09183808364C0FE01E55AFF4F08
:10204000608171818281938120E03FEF4FE757E407
:102050000E94C50318160CF043C0FE01E15AFF4F61
:10206000608171818281938120E030E040E251E41F
:102070000E941F02DC01CB018E01075A1F4FBC01D9
:10208000CD010E944900DC01CB01F80191838083DE
:102090001FC0FE01E95AFF4F80E991E091838083E0
:1020A000FE01E95AFF4F808191810197F1F7FE010E
:1020B000E95AFF4F91838083DE01A75ABF4FFE018B
:1020C000E75AFF4F80819181019711969C938E93DF
:1020D000FE01E75AFF4F808191810097D1F627C01A
:1020E0008E01075A1F4FFE01E55AFF4F6081718133
:1020F000828193810E944900DC01CB01F801918328
:102100008083DE01AB5ABF4FFE01E75AFF4F80814B
:1021100091818D939C93FE01EB5AFF4F80819181B9
:102120000197F1F7FE01EB5AFF4F9183808380E026
:1021300062E041E00E943A0AFE01EF5AFF4F80E060
:1021400090E0A0E8BFE380839183A283B3838E01F4
:10215000035B1F4FFE01EF5AFF4F60817181828147
:10216000938120E030E04AE755E40E941F02DC0141
:10217000CB01F80180839183A283B383FE01E35BEB
:10218000FF4F608171818281938120E030E040E8DF
:102190005FE30E942504882344F4FE01E55BFF4FC2
:1021A00081E090E09183808364C0FE01E35BFF4F98
:1021B000608171818281938120E03FEF4FE757E496
:1021C0000E94C50318160CF043C0FE01EF5AFF4FE2
:1021D000608171818281938120E030E040E251E4AE
:1021E0000E941F02DC01CB018E01055B1F4FBC0169
:1021F000CD010E944900DC01CB01F801918380836D
:102200001FC0FE01E75BFF4F80E991E0918380836F
:10221000FE01E75BFF4F808191810197F1F7FE019D
:10222000E75BFF4F91838083DE01A55BBF4FFE011B
:10223000E55BFF4F80819181019711969C938E936E
:10224000FE01E55BFF4F808191810097D1F627C0A9
:102250008E01055B1F4FFE01E35BFF4F60817181C3
:10226000828193810E944900DC01CB01F8019183B6
:102270008083DE01A95BBF4FFE01E55BFF4F8081DC
:1022800091818D939C93FE01E95BFF4F8081918149
:102290000197F1F7FE01E95BFF4F91838083FE0117
:1022A000ED59FF4F808182958F70982F917080E05B
:1022B00063E0492F0E943A0AFE01ED59FF4F8081E9
:1022C000829586958770982F917080E064E0492F01
:1022D0000E943A0AFE01ED59FF4F80818295869552
:1022E00086958370982F917080E065E0492F0E9459
:1022F0003A0AFE01ED59FF4F8081982F991F9927C7
:10230000991F80E066E0492F0E943A0AFE01ED5BCA
:10231000FF4F80E090E0A0E8BFE380839183A28339
:10232000B3838E01015C1F4FFE01ED5BFF4F6081A7
:1023300071818281938120E030E04AE755E40E9478
:102340001F02DC01CB01F80180839183A283B38358
:10235000FE01FF96608171818281938120E030E0EF
:1023600040E85FE30E94250488232CF481E090E09C
:102370009EAF8DAF46C0FE01FF9660817181828164
:10238000938120E03FEF4FE757E40E94C503181602
:1023900064F5FE01ED5BFF4F608171818281938165
:1023A00020E030E040E251E40E941F02DC01CB015A
:1023B000BC01CD010E944900DC01CB019EAF8DAF75
:1023C0000FC080E991E09CAF8BAF8BAD9CAD0197C6
:1023D000F1F79CAF8BAF8DAD9EAD01979EAF8DAFEA
:1023E0008DAD9EAD009769F716C0FE01FF96608126
:1023F0007181828193810E944900DC01CB019EAFF3
:102400008DAF8DAD9EAD9AAF89AF89AD9AAD019775
:10241000F1F79AAF89AF80E062E040E00E943A0AAB
:1024200080E090E0A0E8BFE38DAB9EABAFABB8AF70
:102430006DA97EA98FA998AD20E030E04AE755E468
:102440000E941F02DC01CB0189AB9AABABABBCABEA
:1024500069A97AA98BA99CA920E030E040E85FE354
:102460000E94250488232CF481E090E098AB8FA78C
:102470003FC069A97AA98BA99CA920E03FEF4FE74B
:1024800057E40E94C50318164CF56DA97EA98FA9C3
:1024900098AD20E030E040E251E40E941F02DC01F0
:1024A000CB01BC01CD010E944900DC01CB0198ABFE
:1024B0008FA70FC080E991E09EA78DA78DA59EA54F
:1024C0000197F1F79EA78DA78FA598A9019798ABC3
:1024D0008FA78FA598A9009769F714C069A97AA951
:1024E0008BA99CA90E944900DC01CB0198AB8FA766
:1024F0008FA598A99CA78BA78BA59CA50197F1F701
:102500009CA78BA780E062E041E00E943A0A80E04D
:1025100090E0A0E8BFE38FA398A7A9A7BAA76FA1EF
:1025200078A589A59AA520E030E04AE755E40E9405
:102530001F02DC01CB018BA39CA3ADA3BEA36BA1A7
:102540007CA18DA19EA120E030E040E85FE30E94E5
:10255000250488232CF481E090E09AA389A33FC04E
:102560006BA17CA18DA19EA120E03FEF4FE757E436
:102570000E94C50318164CF56FA178A589A59AA5E8
:1025800020E030E040E251E40E941F02DC01CB0178
:10259000BC01CD010E944900DC01CB019AA389A3B3
:1025A0000FC080E991E098A38F8F8F8D98A101973C
:1025B000F1F798A38F8F89A19AA101979AA389A374
:1025C00089A19AA1009769F714C06BA17CA18DA184
:1025D0009EA10E944900DC01CB019AA389A389A195
:1025E0009AA19E8F8D8F8D8D9E8D0197F1F79E8F75
:1025F0008D8FFE01ED59FF4F8081982F917080E003
:1026000063E0492F0E943A0AFE01ED59FF4F808195
:102610008695982F917080E064E0492F0E943A0AD5
:10262000FE01ED59FF4F808186958695982F917018
:1026300080E065E0492F0E943A0AFE01ED59FF4F04
:102640008081869586958695982F917080E066E0CA
:10265000492F0E943A0A80E090E0A0E8BFE3898F0A
:102660009A8FAB8FBC8F698D7A8D8B8D9C8D20E07E
:1026700030E04AE755E40E941F02DC01CB018D8B5C
:102680009E8BAF8BB88F6D897E898F89988D20E066
:1026900030E040E85FE30E94250488232CF481E0C9
:1026A00090E09C8B8B8B3FC06D897E898F89988D44
:1026B00020E03FEF4FE757E40E94C50318164CF5A2
:1026C000698D7A8D8B8D9C8D20E030E040E251E465
:1026D0000E941F02DC01CB01BC01CD010E94490018
:1026E000DC01CB019C8B8B8B0FC080E991E09A8B36
:1026F000898B89899A890197F1F79A8B898B8B89C4
:102700009C8901979C8B8B8B8B899C89009769F79F
:1027100014C06D897E898F89988D0E944900DC01E3
:10272000CB019C8B8B8B8B899C89988B8F878F851A
:1027300098890197F1F7988B8F8780E062E040E0FD
:102740000E943A0A80E090E0A0E8BFE38B879C8774
:10275000AD87BE876B857C858D859E8520E030E0CA
:102760004AE755E40E941F02DC01CB018F83988762
:10277000A987BA876F81788589859A8520E030E0BE
:1027800040E85FE30E94250488232CF481E090E078
:102790009E838D833FC06F81788589859A8520E0EF
:1027A0003FEF4FE757E40E94C50318164CF56B85C1
:1027B0007C858D859E8520E030E040E251E40E94DA
:1027C0001F02DC01CB01BC01CD010E944900DC01EC
:1027D000CB019E838D830FC080E991E09C838B8326
:1027E0008B819C810197F1F79C838B838D819E81E6
:1027F00001979E838D838D819E81009769F714C018
:102800006F81788589859A850E944900DC01CB011A
:102810009E838D838D819E819A83898389819A810C
:102820000197F1F79A838983CD59DF4F0FB6F8945A
:10283000DEBF0FBECDBFCF91DF911F910F910895E5
:102840000F931F93DF93CF93CDB7DEB7C356D0401E
:102850000FB6F894DEBF0FBECDBFFE01ED59FF4F9E
:10286000808380E061E041E00E943A0AFE01E15A83
:10287000FF4F80E090E0A0E8BFE380839183A283D4
:10288000B3838E01055A1F4FFE01E15AFF4F60814D
:1028900071818281938120E030E04AE755E40E9413
:1028A0001F02DC01CB01F80180839183A283B383F3
:1028B000FE01E55AFF4F608171818281938120E0A2
:1028C00030E040E85FE30E942504882344F4FE01E1
:1028D000E75AFF4F81E090E09183808364C0FE015E
:1028E000E55AFF4F608171818281938120E03FEF43
:1028F0004FE757E40E94C50318160CF043C0FE01D1
:10290000E15AFF4F608171818281938120E030E044
:1029100040E251E40E941F02DC01CB018E01075A04
:102920001F4FBC01CD010E944900DC01CB01F80121
:10293000918380831FC0FE01E95AFF4F80E991E037
:1029400091838083FE01E95AFF4F80819181019735
:10295000F1F7FE01E95AFF4F91838083DE01A75A08
:10296000BF4FFE01E75AFF4F808191810197119679
:102970009C938E93FE01E75AFF4F808191810097CF
:10298000D1F627C08E01075A1F4FFE01E55AFF4FAF
:1029900060817181828193810E944900DC01CB01B9
:1029A000F80191838083DE01AB5ABF4FFE01E75AE5
:1029B000FF4F808191818D939C93FE01EB5AFF4FD5
:1029C000808191810197F1F7FE01EB5AFF4F9183CE
:1029D000808380E062E041E00E943A0AFE01EF5A03
:1029E000FF4F80E090E0A0E8BFE380839183A28363
:1029F000B3838E01035B1F4FFE01EF5AFF4F6081CF
:102A000071818281938120E030E04AE755E40E94A1
:102A10001F02DC01CB01F80180839183A283B38381
:102A2000FE01E35BFF4F608171818281938120E031
:102A300030E040E85FE30E942504882344F4FE016F
:102A4000E55BFF4F81E090E09183808364C0FE01ED
:102A5000E35BFF4F608171818281938120E03FEFD2
:102A60004FE757E40E94C50318160CF043C0FE015F
:102A7000EF5AFF4F608171818281938120E030E0C5
:102A800040E251E40E941F02DC01CB018E01055B94
:102A90001F4FBC01CD010E944900DC01CB01F801B0
:102AA000918380831FC0FE01E75BFF4F80E991E0C7
:102AB00091838083FE01E75BFF4F808191810197C5
:102AC000F1F7FE01E75BFF4F91838083DE01A55B99
:102AD000BF4FFE01E55BFF4F808191810197119609
:102AE0009C938E93FE01E55BFF4F8081918100975F
:102AF000D1F627C08E01055B1F4FFE01E35BFF4F40
:102B000060817181828193810E944900DC01CB0147
:102B1000F80191838083DE01A95BBF4FFE01E55B75
:102B2000FF4F808191818D939C93FE01E95BFF4F64
:102B3000808191810197F1F7FE01E95BFF4F91835D
:102B40008083FE01ED59FF4F808182958F70982F11
:102B5000917080E063E0492F0E943A0AFE01ED592E
:102B6000FF4F8081829586958770982F917080E0C5
:102B700064E0492F0E943A0AFE01ED59FF4F80811F
:102B80008295869586958370982F917080E065E098
:102B9000492F0E943A0AFE01ED59FF4F8081982F7C
:102BA000991F9927991F80E066E0492F0E943A0AF1
:102BB000FE01ED5BFF4F80E090E0A0E8BFE3808383
:102BC0009183A283B3838E01015C1F4FFE01ED5BF5
:102BD000FF4F608171818281938120E030E04AE77C
:102BE00055E40E941F02DC01CB01F8018083918330
:102BF000A283B383FE01FF966081718182819381FC
:102C000020E030E040E85FE30E94250488232CF4B4
:102C100081E090E09EAF8DAF46C0FE01FF966081DF
:102C200071818281938120E03FEF4FE757E40E945A
:102C3000C503181664F5FE01ED5BFF4F60817181DD
:102C40008281938120E030E040E251E40E941F0243
:102C5000DC01CB01BC01CD010E944900DC01CB01AC
:102C60009EAF8DAF0FC080E991E09CAF8BAF8BAD75
:102C70009CAD0197F1F79CAF8BAF8DAD9EAD0197E9
:102C80009EAF8DAF8DAD9EAD009769F716C0FE016A
:102C9000FF9660817181828193810E944900DC01ED
:102CA000CB019EAF8DAF8DAD9EAD9AAF89AF89AD93
:102CB0009AAD0197F1F79AAF89AF80E062E040E00A
:102CC0000E943A0A80E090E0A0E8BFE38DAB9EABA3
:102CD000AFABB8AF6DA97EA98FA998AD20E030E069
:102CE0004AE755E40E941F02DC01CB0189AB9AAB95
:102CF000ABABBCAB69A97AA98BA99CA920E030E059
:102D000040E85FE30E94250488232CF481E090E0F2
:102D100098AB8FA73FC069A97AA98BA99CA920E08D
:102D20003FEF4FE757E40E94C50318164CF56DA915
:102D30007EA98FA998AD20E030E040E251E40E94E6
:102D40001F02DC01CB01BC01CD010E944900DC0166
:102D5000CB0198AB8FA70FC080E991E09EA78DA70C
:102D60008DA59EA50197F1F79EA78DA78FA598A980
:102D7000019798AB8FA78FA598A9009769F714C002
:102D800069A97AA98BA99CA90E944900DC01CB0101
:102D900098AB8FA78FA598A99CA78BA78BA59CA55F
:102DA0000197F1F79CA78BA780E062E041E00E94C9
:102DB0003A0A80E090E0A0E8BFE38FA398A7A9A714
:102DC000BAA76FA178A589A59AA520E030E04AE7C7
:102DD00055E40E941F02DC01CB018BA39CA3ADA391
:102DE000BEA36BA17CA18DA19EA120E030E040E8B4
:102DF0005FE30E94250488232CF481E090E09AA3ED
:102E000089A33FC06BA17CA18DA19EA120E03FEFD3
:102E10004FE757E40E94C50318164CF56FA178A53B
:102E200089A59AA520E030E040E251E40E941F020B
:102E3000DC01CB01BC01CD010E944900DC01CB01CA
:102E40009AA389A30FC080E991E098A38F8F8F8DFB
:102E500098A10197F1F798A38F8F89A19AA1019763
:102E60009AA389A389A19AA1009769F714C06BA1BD
:102E70007CA18DA19EA10E944900DC01CB019AA3F7
:102E800089A389A19AA19E8F8D8F8D8D9E8D01978B
:102E9000F1F79E8F8D8FFE01ED59FF4F8081982FA6
:102EA000917080E063E0492F0E943A0AFE01ED59DB
:102EB000FF4F80818695982F917080E064E0492FC4
:102EC0000E943A0AFE01ED59FF4F80818695869552
:102ED000982F917080E065E0492F0E943A0AFE0128
:102EE000ED59FF4F8081869586958695982F917034
:102EF00080E066E0492F0E943A0A80E090E0A0E876
:102F0000BFE3898F9A8FAB8FBC8F698D7A8D8B8D44
:102F10009C8D20E030E04AE755E40E941F02DC016E
:102F2000CB018D8B9E8BAF8BB88F6D897E898F89FE
:102F3000988D20E030E040E85FE30E94250488237C
:102F40002CF481E090E09C8B8B8B3FC06D897E8957
:102F50008F89988D20E03FEF4FE757E40E94C5032B
:102F600018164CF5698D7A8D8B8D9C8D20E030E0A4
:102F700040E251E40E941F02DC01CB01BC01CD0103
:102F80000E944900DC01CB019C8B8B8B0FC080E938
:102F900091E09A8B898B89899A890197F1F79A8BAD
:102FA000898B8B899C8901979C8B8B8B8B899C89C6
:102FB000009769F714C06D897E898F89988D0E946A
:102FC0004900DC01CB019C8B8B8B8B899C89988B76
:102FD0008F878F8598890197F1F7988B8F8780E08D
:102FE00062E040E00E943A0A80E090E0A0E8BFE39F
:102FF0008B879C87AD87BE876B857C858D859E85FD
:1030000020E030E04AE755E40E941F02DC01CB01DA
:103010008F839887A987BA876F81788589859A85F4
:1030200020E030E040E85FE30E94250488232CF490
:1030300081E090E09E838D833FC06F817885898594
:103040009A8520E03FEF4FE757E40E94C50318162A
:103050004CF56B857C858D859E8520E030E040E2D7
:1030600051E40E941F02DC01CB01BC01CD010E9492
:103070004900DC01CB019E838D830FC080E991E084
:103080009C838B838B819C810197F1F79C838B833D
:103090008D819E8101979E838D838D819E81009776
:1030A00069F714C06F81788589859A850E944900E7
:1030B000DC01CB019E838D838D819E819A838983E0
:1030C00089819A810197F1F79A838983CD59DF4FDE
:1030D0000FB6F894DEBF0FBECDBFCF91DF911F9129
:1030E0000F910895DF93CF9300D00F92CDB7DEB745
:1030F0009B838A8319820EC08981282F30E08A81C0
:103100009B81FC01E20FF31F80810E9420148981C2
:103110008F5F89838981282F30E08A819B81FC0120
:10312000E20FF31F8081882339F70F900F900F90E3
:10313000CF91DF910895DF93CF9300D000D00F920D
:10314000CDB7DEB78A836B838A81282F30E03D8339
:103150002C838C819D8181309105C1F02C813D8132
:10316000223031052CF48C819D81009761F019C0CB
:103170002C813D812230310569F08C819D81833025
:10318000910561F00EC08B8189830BC08B81805CBF
:10319000898307C08B81805F898303C08B81805BBB
:1031A0008983898180680E94CE0F0F900F900F90C5
:1031B0000F900F90CF91DF910895DF93CF9300D0C0
:1031C00000D0CDB7DEB789836A835C834B83898166
:1031D0006A810E949B188B819C810E9472180F90BB
:1031E0000F900F900F90CF91DF910895DF93CF93C1
:1031F000CDB7DEB781E00E94CE0FCF91DF91089569
:10320000DF93CF93CDB7DEB78DE00E94CE0FCF9185
:10321000DF910895DF93CF93CDB7DEB768970FB6F0
:10322000F894DEBF0FBECDBF6D8B7E8B8F8B988FDA
:103230008D899E89AF89B88DBC01CD019E012F5F1C
:103240003F4FA9012AE030E00E94F81BCE01019611
:103250000E94721868960FB6F894DEBF0FBECDBFFD
:10326000CF91DF910895DF93CF9300D0CDB7DEB734
:103270009A838983E981FA8180818370282FE9818B
:10328000FA818081869586958770982F822F692F85
:1032900041E00E944F090F900F90CF91DF91089568
:1032A000DF93CF9300D0CDB7DEB79A838983E981CE
:1032B000FA8180818370382FE981FA818081869537
:1032C00086958770282FE981FA818081829586957D
:1032D0008770817091E089278170982F832F622FEA
:1032E000492F0E943A0A0F900F90CF91DF910895D5
:1032F000DF93CF9300D0CDB7DEB79A838983E9817E
:10330000FA8180818370382FE981FA8180818695E6
:1033100086958770282FE981FA818081829586952C
:1033200087708170982F832F622F492F0E943A0A4D
:103330000F900F90CF91DF910895DF93CF9300D03E
:10334000CDB7DEB79A838983E981FA818081837062
:10335000282FE981FA818081869586958770982F3C
:10336000822F692F0E94250B0F900F90CF91DF9134
:103370000895DF93CF93CDB7DEB70E940B0D8AEA95
:1033800091E00E9433190E941C0F87EA91E00E948D
:10339000960E88EA91E00E94960E89EA91E00E94DA
:1033A000960E78940E945F0D8091B6018823E1F318
:1033B00080E690E00E9472188091B601813031F46D
:1033C0001092B6010E94FB190E945F0D8091B4011A
:1033D0009091B5018630910518F40E94121AECCF35
:1033E00081E060E00E949B1880E790E00E947218E4
:1033F0000E94311BE1CFDF93CF93CDB7DEB780E0E2
:103400006AE00E949B180E94580ECC01A0E0B0E038
:10341000BC01CD010E940A1980E20E942014CF91C4
:10342000DF910895DF93CF93CDB7DEB76C970FB6DA
:10343000F894DEBF0FBECDBF81E060E00E949B1814
:103440008AE890E00E9472188AEA91E00E9450197E
:1034500087EA91E00E94B30E88EA91E00E94B30EE1
:1034600089EA91E00E94B30E80E090E0AAE7B3E41D
:10347000898F9A8FAB8FBC8F698D7A8D8B8D9C8D48
:1034800020E030E04AE755E40E941F02DC01CB0156
:103490008D8B9E8BAF8BB88F6D897E898F89988D30
:1034A00020E030E040E85FE30E94250488232CF40C
:1034B00081E090E09C8B8B8B3FC06D897E898F89EA
:1034C000988D20E03FEF4FE757E40E94C5031816A0
:1034D0004CF5698D7A8D8B8D9C8D20E030E040E23B
:1034E00051E40E941F02DC01CB01BC01CD010E940E
:1034F0004900DC01CB019C8B8B8B0FC080E991E0F4
:103500009A8B898B89899A890197F1F79A8B898B94
:103510008B899C8901979C8B8B8B8B899C890097CD
:1035200069F714C06D897E898F89988D0E94490042
:10353000DC01CB019C8B8B8B8B899C89988B8F8733
:103540008F8598890197F1F7988B8F878AEA91E0A8
:103550000E94781987EA91E00E94DB0E88EA91E0E8
:103560000E94DB0E89EA91E00E94DB0E80E090E091
:10357000AAE7B3E48B879C87AD87BE876B857C8584
:103580008D859E8520E030E04AE755E40E941F02C9
:10359000DC01CB018F839887A987BA876F817885F3
:1035A00089859A8520E030E040E85FE30E942504A9
:1035B00088232CF481E090E09E838D833FC06F814F
:1035C000788589859A8520E03FEF4FE757E40E9490
:1035D000C50318164CF56B857C858D859E8520E08E
:1035E00030E040E251E40E941F02DC01CB01BC014B
:1035F000CD010E944900DC01CB019E838D830FC069
:1036000080E991E09C838B838B819C810197F1F70A
:103610009C838B838D819E8101979E838D838D8179
:103620009E81009769F714C06F81788589859A8596
:103630000E944900DC01CB019E838D838D819E8198
:103640009A83898389819A810197F1F79A83898383
:103650006C960FB6F894DEBF0FBECDBFCF91DF9151
:103660000895DF93CF93CDB7DEB78091B4019091E9
:10367000B5018B30910568F487EA91E00E94B30EA2
:1036800088EA91E00E94B30E89EA91E00E94B30EAD
:1036900034C08091B4019091B5018031910568F4F6
:1036A00087EA91E00E94B30E88EA91E00E94B30E8F
:1036B00089EA91E00E94DB0E20C08091B4019091D4
:1036C000B5018531910568F487EA91E00E94B30E57
:1036D00088EA91E00E94DB0E89EA91E00E94DB0E0D
:1036E0000CC087EA91E00E94DB0E88EA91E00E941C
:1036F000DB0E89EA91E00E94DB0ECF91DF91089505
:10370000629FD001739FF001829FE00DF11D649FC5
:10371000E00DF11D929FF00D839FF00D749FF00D51
:10372000659FF00D9927729FB00DE11DF91F639FF2
:10373000B00DE11DF91FBD01CF0111240895A1E2D3
:103740001A2EAA1BBB1BFD010DC0AA1FBB1FEE1F1B
:10375000FF1FA217B307E407F50720F0A21BB30B66
:10376000E40BF50B661F771F881F991F1A9469F7E2
:1037700060957095809590959B01AC01BD01CF013E
:1037800008952F923F924F925F926F927F928F9205
:103790009F92AF92BF92CF92DF92EF92FF920F93E0
:1037A0001F93CF93DF93CDB7DEB7CA1BDB0B0FB6EA
:1037B000F894DEBF0FBECDBF09942A8839884888A7
:1037C0005F846E847D848C849B84AA84B984C8843D
:1037D000DF80EE80FD800C811B81AA81B981CE0F34
:1037E000D11D0FB6F894DEBF0FBECDBFED01089519
:1037F000FA01CF93FF93EF93223044F1253234F551
:10380000C22FE894CA3049F497FB3EF49095809516
:10381000709561957F4F8F4F9F4F2C2F33274427F3
:103820005527FF93EF930E949F1BEF91FF91605DDF
:103830006A330CF0695D6193B901CA016050704050
:103840008040904051F716F4CDE2C19310828F91E1
:103850009F91CF910C942C1CDC01FC01672F71917E
:103860007723E1F7329704C07C916D937083629166
:0C387000AE17BF07C8F30895F894FFCF0F
:10387C0044697374616E6365203D202020636D0084
:10388C00202020202020202020202020202020202C
:10389C00202020202020202020002020202020203C
:1038AC0053544F50212120202020202000000000C4
:1038BC0000000000000001020203030303040404DF
:1038CC0004040404040505050505050505050505A1
:1038DC000505050505060606060606060606060681
:1038EC00060606060606060606060606060606066C
:1038FC000606060606070707070707070707070751
:10390C00070707070707070707070707070707073B
:10391C00070707070707070707070707070707072B
:10392C00070707070707070707070707070707071B
:10393C000707070707080808080808080808080800
:10394C0008080808080808080808080808080808EB
:10395C0008080808080808080808080808080808DB
:10396C0008080808080808080808080808080808CB
:10397C0008080808080808080808080808080808BB
:10398C0008080808080808080808080808080808AB
:10399C00080808080808080808080808080808089B
:1039AC00080808080808080808080808080808088B
:1039BC000808080808001202060A160000003F005A
:00000001FF
